{
  "_format": "hh-sol-artifact-1",
  "contractName": "Alphabet",
  "sourceName": "contracts/Alphabet.sol",
  "abi": [
    {
      "inputs": [
        {
          "internalType": "string",
          "name": "_alphabetUrl",
          "type": "string"
        },
        {
          "internalType": "string",
          "name": "_githubUrl",
          "type": "string"
        },
        {
          "internalType": "uint256",
          "name": "_initialMintPrice",
          "type": "uint256"
        }
      ],
      "stateMutability": "nonpayable",
      "type": "constructor"
    },
    {
      "inputs": [
        {
          "internalType": "address",
          "name": "sender",
          "type": "address"
        },
        {
          "internalType": "uint256",
          "name": "tokenId",
          "type": "uint256"
        },
        {
          "internalType": "address",
          "name": "owner",
          "type": "address"
        }
      ],
      "name": "ERC721IncorrectOwner",
      "type": "error"
    },
    {
      "inputs": [
        {
          "internalType": "address",
          "name": "operator",
          "type": "address"
        },
        {
          "internalType": "uint256",
          "name": "tokenId",
          "type": "uint256"
        }
      ],
      "name": "ERC721InsufficientApproval",
      "type": "error"
    },
    {
      "inputs": [
        {
          "internalType": "address",
          "name": "approver",
          "type": "address"
        }
      ],
      "name": "ERC721InvalidApprover",
      "type": "error"
    },
    {
      "inputs": [
        {
          "internalType": "address",
          "name": "operator",
          "type": "address"
        }
      ],
      "name": "ERC721InvalidOperator",
      "type": "error"
    },
    {
      "inputs": [
        {
          "internalType": "address",
          "name": "owner",
          "type": "address"
        }
      ],
      "name": "ERC721InvalidOwner",
      "type": "error"
    },
    {
      "inputs": [
        {
          "internalType": "address",
          "name": "receiver",
          "type": "address"
        }
      ],
      "name": "ERC721InvalidReceiver",
      "type": "error"
    },
    {
      "inputs": [
        {
          "internalType": "address",
          "name": "sender",
          "type": "address"
        }
      ],
      "name": "ERC721InvalidSender",
      "type": "error"
    },
    {
      "inputs": [
        {
          "internalType": "uint256",
          "name": "tokenId",
          "type": "uint256"
        }
      ],
      "name": "ERC721NonexistentToken",
      "type": "error"
    },
    {
      "inputs": [
        {
          "internalType": "address",
          "name": "owner",
          "type": "address"
        }
      ],
      "name": "OwnableInvalidOwner",
      "type": "error"
    },
    {
      "inputs": [
        {
          "internalType": "address",
          "name": "account",
          "type": "address"
        }
      ],
      "name": "OwnableUnauthorizedAccount",
      "type": "error"
    },
    {
      "anonymous": false,
      "inputs": [
        {
          "indexed": true,
          "internalType": "address",
          "name": "user",
          "type": "address"
        },
        {
          "indexed": false,
          "internalType": "uint256",
          "name": "tokenId",
          "type": "uint256"
        },
        {
          "indexed": false,
          "internalType": "string",
          "name": "tokenURI",
          "type": "string"
        }
      ],
      "name": "AlphabetMinted",
      "type": "event"
    },
    {
      "anonymous": false,
      "inputs": [
        {
          "indexed": true,
          "internalType": "address",
          "name": "owner",
          "type": "address"
        },
        {
          "indexed": true,
          "internalType": "address",
          "name": "approved",
          "type": "address"
        },
        {
          "indexed": true,
          "internalType": "uint256",
          "name": "tokenId",
          "type": "uint256"
        }
      ],
      "name": "Approval",
      "type": "event"
    },
    {
      "anonymous": false,
      "inputs": [
        {
          "indexed": true,
          "internalType": "address",
          "name": "owner",
          "type": "address"
        },
        {
          "indexed": true,
          "internalType": "address",
          "name": "operator",
          "type": "address"
        },
        {
          "indexed": false,
          "internalType": "bool",
          "name": "approved",
          "type": "bool"
        }
      ],
      "name": "ApprovalForAll",
      "type": "event"
    },
    {
      "anonymous": false,
      "inputs": [
        {
          "indexed": false,
          "internalType": "uint256",
          "name": "_fromTokenId",
          "type": "uint256"
        },
        {
          "indexed": false,
          "internalType": "uint256",
          "name": "_toTokenId",
          "type": "uint256"
        }
      ],
      "name": "BatchMetadataUpdate",
      "type": "event"
    },
    {
      "anonymous": false,
      "inputs": [
        {
          "indexed": true,
          "internalType": "address",
          "name": "from",
          "type": "address"
        },
        {
          "indexed": false,
          "internalType": "uint256",
          "name": "amount",
          "type": "uint256"
        },
        {
          "indexed": false,
          "internalType": "string",
          "name": "message",
          "type": "string"
        }
      ],
      "name": "DonationReceived",
      "type": "event"
    },
    {
      "anonymous": false,
      "inputs": [
        {
          "indexed": false,
          "internalType": "uint256",
          "name": "_tokenId",
          "type": "uint256"
        }
      ],
      "name": "MetadataUpdate",
      "type": "event"
    },
    {
      "anonymous": false,
      "inputs": [
        {
          "indexed": true,
          "internalType": "address",
          "name": "previousOwner",
          "type": "address"
        },
        {
          "indexed": true,
          "internalType": "address",
          "name": "newOwner",
          "type": "address"
        }
      ],
      "name": "OwnershipTransferred",
      "type": "event"
    },
    {
      "anonymous": false,
      "inputs": [
        {
          "indexed": true,
          "internalType": "address",
          "name": "from",
          "type": "address"
        },
        {
          "indexed": true,
          "internalType": "address",
          "name": "to",
          "type": "address"
        },
        {
          "indexed": true,
          "internalType": "uint256",
          "name": "tokenId",
          "type": "uint256"
        }
      ],
      "name": "Transfer",
      "type": "event"
    },
    {
      "inputs": [
        {
          "internalType": "address",
          "name": "to",
          "type": "address"
        },
        {
          "internalType": "uint256",
          "name": "tokenId",
          "type": "uint256"
        }
      ],
      "name": "approve",
      "outputs": [],
      "stateMutability": "nonpayable",
      "type": "function"
    },
    {
      "inputs": [
        {
          "internalType": "address",
          "name": "owner",
          "type": "address"
        }
      ],
      "name": "balanceOf",
      "outputs": [
        {
          "internalType": "uint256",
          "name": "",
          "type": "uint256"
        }
      ],
      "stateMutability": "view",
      "type": "function"
    },
    {
      "inputs": [],
      "name": "baseAlphabetUrl",
      "outputs": [
        {
          "internalType": "string",
          "name": "",
          "type": "string"
        }
      ],
      "stateMutability": "view",
      "type": "function"
    },
    {
      "inputs": [
        {
          "internalType": "string",
          "name": "message",
          "type": "string"
        }
      ],
      "name": "donate",
      "outputs": [],
      "stateMutability": "payable",
      "type": "function"
    },
    {
      "inputs": [
        {
          "internalType": "uint256",
          "name": "tokenId",
          "type": "uint256"
        }
      ],
      "name": "getApproved",
      "outputs": [
        {
          "internalType": "address",
          "name": "",
          "type": "address"
        }
      ],
      "stateMutability": "view",
      "type": "function"
    },
    {
      "inputs": [],
      "name": "githubRepositoryUrl",
      "outputs": [
        {
          "internalType": "string",
          "name": "",
          "type": "string"
        }
      ],
      "stateMutability": "view",
      "type": "function"
    },
    {
      "inputs": [
        {
          "internalType": "address",
          "name": "owner",
          "type": "address"
        },
        {
          "internalType": "address",
          "name": "operator",
          "type": "address"
        }
      ],
      "name": "isApprovedForAll",
      "outputs": [
        {
          "internalType": "bool",
          "name": "",
          "type": "bool"
        }
      ],
      "stateMutability": "view",
      "type": "function"
    },
    {
      "inputs": [
        {
          "internalType": "string",
          "name": "customURI",
          "type": "string"
        }
      ],
      "name": "mintAlphabet",
      "outputs": [
        {
          "internalType": "uint256",
          "name": "",
          "type": "uint256"
        }
      ],
      "stateMutability": "payable",
      "type": "function"
    },
    {
      "inputs": [],
      "name": "mintPrice",
      "outputs": [
        {
          "internalType": "uint256",
          "name": "",
          "type": "uint256"
        }
      ],
      "stateMutability": "view",
      "type": "function"
    },
    {
      "inputs": [],
      "name": "name",
      "outputs": [
        {
          "internalType": "string",
          "name": "",
          "type": "string"
        }
      ],
      "stateMutability": "view",
      "type": "function"
    },
    {
      "inputs": [],
      "name": "owner",
      "outputs": [
        {
          "internalType": "address",
          "name": "",
          "type": "address"
        }
      ],
      "stateMutability": "view",
      "type": "function"
    },
    {
      "inputs": [
        {
          "internalType": "uint256",
          "name": "tokenId",
          "type": "uint256"
        }
      ],
      "name": "ownerOf",
      "outputs": [
        {
          "internalType": "address",
          "name": "",
          "type": "address"
        }
      ],
      "stateMutability": "view",
      "type": "function"
    },
    {
      "inputs": [],
      "name": "renounceOwnership",
      "outputs": [],
      "stateMutability": "nonpayable",
      "type": "function"
    },
    {
      "inputs": [
        {
          "internalType": "address",
          "name": "from",
          "type": "address"
        },
        {
          "internalType": "address",
          "name": "to",
          "type": "address"
        },
        {
          "internalType": "uint256",
          "name": "tokenId",
          "type": "uint256"
        }
      ],
      "name": "safeTransferFrom",
      "outputs": [],
      "stateMutability": "nonpayable",
      "type": "function"
    },
    {
      "inputs": [
        {
          "internalType": "address",
          "name": "from",
          "type": "address"
        },
        {
          "internalType": "address",
          "name": "to",
          "type": "address"
        },
        {
          "internalType": "uint256",
          "name": "tokenId",
          "type": "uint256"
        },
        {
          "internalType": "bytes",
          "name": "data",
          "type": "bytes"
        }
      ],
      "name": "safeTransferFrom",
      "outputs": [],
      "stateMutability": "nonpayable",
      "type": "function"
    },
    {
      "inputs": [
        {
          "internalType": "address",
          "name": "operator",
          "type": "address"
        },
        {
          "internalType": "bool",
          "name": "approved",
          "type": "bool"
        }
      ],
      "name": "setApprovalForAll",
      "outputs": [],
      "stateMutability": "nonpayable",
      "type": "function"
    },
    {
      "inputs": [
        {
          "internalType": "string",
          "name": "_newAlphabetUrl",
          "type": "string"
        }
      ],
      "name": "setBaseAlphabetUrl",
      "outputs": [],
      "stateMutability": "nonpayable",
      "type": "function"
    },
    {
      "inputs": [
        {
          "internalType": "string",
          "name": "_newGithubRepositoryUrl",
          "type": "string"
        }
      ],
      "name": "setGithubRepositoryUrl",
      "outputs": [],
      "stateMutability": "nonpayable",
      "type": "function"
    },
    {
      "inputs": [
        {
          "internalType": "uint256",
          "name": "_newPrice",
          "type": "uint256"
        }
      ],
      "name": "setMintPrice",
      "outputs": [],
      "stateMutability": "nonpayable",
      "type": "function"
    },
    {
      "inputs": [
        {
          "internalType": "bytes4",
          "name": "interfaceId",
          "type": "bytes4"
        }
      ],
      "name": "supportsInterface",
      "outputs": [
        {
          "internalType": "bool",
          "name": "",
          "type": "bool"
        }
      ],
      "stateMutability": "view",
      "type": "function"
    },
    {
      "inputs": [],
      "name": "symbol",
      "outputs": [
        {
          "internalType": "string",
          "name": "",
          "type": "string"
        }
      ],
      "stateMutability": "view",
      "type": "function"
    },
    {
      "inputs": [
        {
          "internalType": "uint256",
          "name": "tokenId",
          "type": "uint256"
        }
      ],
      "name": "tokenURI",
      "outputs": [
        {
          "internalType": "string",
          "name": "",
          "type": "string"
        }
      ],
      "stateMutability": "view",
      "type": "function"
    },
    {
      "inputs": [],
      "name": "totalDonated",
      "outputs": [
        {
          "internalType": "uint256",
          "name": "",
          "type": "uint256"
        }
      ],
      "stateMutability": "view",
      "type": "function"
    },
    {
      "inputs": [
        {
          "internalType": "address",
          "name": "from",
          "type": "address"
        },
        {
          "internalType": "address",
          "name": "to",
          "type": "address"
        },
        {
          "internalType": "uint256",
          "name": "tokenId",
          "type": "uint256"
        }
      ],
      "name": "transferFrom",
      "outputs": [],
      "stateMutability": "nonpayable",
      "type": "function"
    },
    {
      "inputs": [
        {
          "internalType": "address",
          "name": "newOwner",
          "type": "address"
        }
      ],
      "name": "transferOwnership",
      "outputs": [],
      "stateMutability": "nonpayable",
      "type": "function"
    },
    {
      "inputs": [],
      "name": "withdraw",
      "outputs": [],
      "stateMutability": "nonpayable",
      "type": "function"
    }
  ],
  "bytecode": "0x608060405234801561001057600080fd5b506040516138dd3803806138dd833981810160405281019061003291906104ae565b336040518060400160405280601181526020017f547269616e676c6573416c7068616265740000000000000000000000000000008152506040518060400160405280600381526020017f545249000000000000000000000000000000000000000000000000000000000081525081600090816100ae9190610750565b5080600190816100be9190610750565b505050600073ffffffffffffffffffffffffffffffffffffffff168173ffffffffffffffffffffffffffffffffffffffff16036101335760006040517f1e4fbdf700000000000000000000000000000000000000000000000000000000815260040161012a9190610863565b60405180910390fd5b6101428161023d60201b60201c565b506000835111610187576040517f08c379a000000000000000000000000000000000000000000000000000000000815260040161017e906108db565b60405180910390fd5b60008251116101cb576040517f08c379a00000000000000000000000000000000000000000000000000000000081526004016101c290610947565b60405180910390fd5b6000811161020e576040517f08c379a0000000000000000000000000000000000000000000000000000000008152600401610205906109d9565b60405180910390fd5b82600b908161021d9190610750565b5081600c908161022d9190610750565b50806009819055505050506109f9565b6000600760009054906101000a900473ffffffffffffffffffffffffffffffffffffffff16905081600760006101000a81548173ffffffffffffffffffffffffffffffffffffffff021916908373ffffffffffffffffffffffffffffffffffffffff1602179055508173ffffffffffffffffffffffffffffffffffffffff168173ffffffffffffffffffffffffffffffffffffffff167f8be0079c531659141344cd1fd0a4f28419497f9722a3daafe3b4186f6b6457e060405160405180910390a35050565b6000604051905090565b600080fd5b600080fd5b600080fd5b600080fd5b6000601f19601f8301169050919050565b7f4e487b7100000000000000000000000000000000000000000000000000000000600052604160045260246000fd5b61036a82610321565b810181811067ffffffffffffffff8211171561038957610388610332565b5b80604052505050565b600061039c610303565b90506103a88282610361565b919050565b600067ffffffffffffffff8211156103c8576103c7610332565b5b6103d182610321565b9050602081019050919050565b60005b838110156103fc5780820151818401526020810190506103e1565b60008484015250505050565b600061041b610416846103ad565b610392565b9050828152602081018484840111156104375761043661031c565b5b6104428482856103de565b509392505050565b600082601f83011261045f5761045e610317565b5b815161046f848260208601610408565b91505092915050565b6000819050919050565b61048b81610478565b811461049657600080fd5b50565b6000815190506104a881610482565b92915050565b6000806000606084860312156104c7576104c661030d565b5b600084015167ffffffffffffffff8111156104e5576104e4610312565b5b6104f18682870161044a565b935050602084015167ffffffffffffffff81111561051257610511610312565b5b61051e8682870161044a565b925050604061052f86828701610499565b9150509250925092565b600081519050919050565b7f4e487b7100000000000000000000000000000000000000000000000000000000600052602260045260246000fd5b6000600282049050600182168061058b57607f821691505b60208210810361059e5761059d610544565b5b50919050565b60008190508160005260206000209050919050565b60006020601f8301049050919050565b600082821b905092915050565b6000600883026106067fffffffffffffffffffffffffffffffffffffffffffffffffffffffffffffffff826105c9565b61061086836105c9565b95508019841693508086168417925050509392505050565b6000819050919050565b600061064d61064861064384610478565b610628565b610478565b9050919050565b6000819050919050565b61066783610632565b61067b61067382610654565b8484546105d6565b825550505050565b600090565b610690610683565b61069b81848461065e565b505050565b5b818110156106bf576106b4600082610688565b6001810190506106a1565b5050565b601f821115610704576106d5816105a4565b6106de846105b9565b810160208510156106ed578190505b6107016106f9856105b9565b8301826106a0565b50505b505050565b600082821c905092915050565b600061072760001984600802610709565b1980831691505092915050565b60006107408383610716565b9150826002028217905092915050565b61075982610539565b67ffffffffffffffff81111561077257610771610332565b5b61077c8254610573565b6107878282856106c3565b600060209050601f8311600181146107ba57600084156107a8578287015190505b6107b28582610734565b86555061081a565b601f1984166107c8866105a4565b60005b828110156107f0578489015182556001820191506020850194506020810190506107cb565b8683101561080d5784890151610809601f891682610716565b8355505b6001600288020188555050505b505050505050565b600073ffffffffffffffffffffffffffffffffffffffff82169050919050565b600061084d82610822565b9050919050565b61085d81610842565b82525050565b60006020820190506108786000830184610854565b92915050565b600082825260208201905092915050565b7f416c7068616265742055524c2063616e6e6f7420626520656d70747900000000600082015250565b60006108c5601c8361087e565b91506108d08261088f565b602082019050919050565b600060208201905081810360008301526108f4816108b8565b9050919050565b7f4769744875622055524c2063616e6e6f7420626520656d707479000000000000600082015250565b6000610931601a8361087e565b915061093c826108fb565b602082019050919050565b6000602082019050818103600083015261096081610924565b9050919050565b7f496e697469616c206d696e74207072696365206d75737420626520677265617460008201527f6572207468616e20300000000000000000000000000000000000000000000000602082015250565b60006109c360298361087e565b91506109ce82610967565b604082019050919050565b600060208201905081810360008301526109f2816109b6565b9050919050565b612ed580610a086000396000f3fe6080604052600436106101805760003560e01c806380049a2e116100d1578063c87b56dd1161008a578063e5eb914e11610064578063e5eb914e14610553578063e985e9c51461057c578063f2fde38b146105b9578063f4a0a528146105e257610180565b8063c87b56dd146104c2578063cf5ebc70146104ff578063d652b3601461052a57610180565b806380049a2e146103d35780638da5cb5b146103fe57806395d89b4114610429578063a22cb46514610454578063b5aebc801461047d578063b88d4fde1461049957610180565b80632c11406a1161013e5780636352211e116101185780636352211e146103175780636817c76c1461035457806370a082311461037f578063715018a6146103bc57610180565b80632c11406a146102a75780633ccfd60b146102d757806342842e0e146102ee57610180565b8062b370441461018557806301ffc9a7146101b057806306fdde03146101ed578063081812fc14610218578063095ea7b31461025557806323b872dd1461027e575b600080fd5b34801561019157600080fd5b5061019a61060b565b6040516101a79190612093565b60405180910390f35b3480156101bc57600080fd5b506101d760048036038101906101d2919061211a565b610611565b6040516101e49190612162565b60405180910390f35b3480156101f957600080fd5b50610202610672565b60405161020f919061220d565b60405180910390f35b34801561022457600080fd5b5061023f600480360381019061023a919061225b565b610704565b60405161024c91906122c9565b60405180910390f35b34801561026157600080fd5b5061027c60048036038101906102779190612310565b610720565b005b34801561028a57600080fd5b506102a560048036038101906102a09190612350565b610736565b005b6102c160048036038101906102bc91906124d8565b610838565b6040516102ce9190612093565b60405180910390f35b3480156102e357600080fd5b506102ec610907565b005b3480156102fa57600080fd5b5061031560048036038101906103109190612350565b610a0e565b005b34801561032357600080fd5b5061033e6004803603810190610339919061225b565b610a2e565b60405161034b91906122c9565b60405180910390f35b34801561036057600080fd5b50610369610a40565b6040516103769190612093565b60405180910390f35b34801561038b57600080fd5b506103a660048036038101906103a19190612521565b610a46565b6040516103b39190612093565b60405180910390f35b3480156103c857600080fd5b506103d1610b00565b005b3480156103df57600080fd5b506103e8610b14565b6040516103f5919061220d565b60405180910390f35b34801561040a57600080fd5b50610413610ba2565b60405161042091906122c9565b60405180910390f35b34801561043557600080fd5b5061043e610bcc565b60405161044b919061220d565b60405180910390f35b34801561046057600080fd5b5061047b6004803603810190610476919061257a565b610c5e565b005b610497600480360381019061049291906124d8565b610c74565b005b3480156104a557600080fd5b506104c060048036038101906104bb919061265b565b610d23565b005b3480156104ce57600080fd5b506104e960048036038101906104e4919061225b565b610d48565b6040516104f6919061220d565b60405180910390f35b34801561050b57600080fd5b50610514610e5b565b604051610521919061220d565b60405180910390f35b34801561053657600080fd5b50610551600480360381019061054c91906124d8565b610ee9565b005b34801561055f57600080fd5b5061057a600480360381019061057591906124d8565b610f04565b005b34801561058857600080fd5b506105a3600480360381019061059e91906126de565b610f1f565b6040516105b09190612162565b60405180910390f35b3480156105c557600080fd5b506105e060048036038101906105db9190612521565b610fb3565b005b3480156105ee57600080fd5b506106096004803603810190610604919061225b565b611039565b005b600a5481565b6000634906490660e01b7bffffffffffffffffffffffffffffffffffffffffffffffffffffffff1916827bffffffffffffffffffffffffffffffffffffffffffffffffffffffff1916148061066b575061066a8261104b565b5b9050919050565b6060600080546106819061274d565b80601f01602080910402602001604051908101604052809291908181526020018280546106ad9061274d565b80156106fa5780601f106106cf576101008083540402835291602001916106fa565b820191906000526020600020905b8154815290600101906020018083116106dd57829003601f168201915b5050505050905090565b600061070f8261112d565b50610719826111b5565b9050919050565b610732828261072d6111f2565b6111fa565b5050565b600073ffffffffffffffffffffffffffffffffffffffff168273ffffffffffffffffffffffffffffffffffffffff16036107a85760006040517f64a0ae9200000000000000000000000000000000000000000000000000000000815260040161079f91906122c9565b60405180910390fd5b60006107bc83836107b76111f2565b61120c565b90508373ffffffffffffffffffffffffffffffffffffffff168173ffffffffffffffffffffffffffffffffffffffff1614610832578382826040517f64283d7b0000000000000000000000000000000000000000000000000000000081526004016108299392919061277e565b60405180910390fd5b50505050565b600060095434101561087f576040517f08c379a000000000000000000000000000000000000000000000000000000000815260040161087690612801565b60405180910390fd5b60006008600081548092919061089490612850565b9190505590506108a43382611426565b6108ae818461151f565b3373ffffffffffffffffffffffffffffffffffffffff167f0d6462d050a2b35701ffbfa0cfc11a6d08e0662d4515db1bf26064f6db223acc82856040516108f6929190612898565b60405180910390a280915050919050565b61090f61157b565b600047905060008111610957576040517f08c379a000000000000000000000000000000000000000000000000000000000815260040161094e90612914565b60405180910390fd5b6000610961610ba2565b73ffffffffffffffffffffffffffffffffffffffff168260405161098490612965565b60006040518083038185875af1925050503d80600081146109c1576040519150601f19603f3d011682016040523d82523d6000602084013e6109c6565b606091505b5050905080610a0a576040517f08c379a0000000000000000000000000000000000000000000000000000000008152600401610a01906129c6565b60405180910390fd5b5050565b610a2983838360405180602001604052806000815250610d23565b505050565b6000610a398261112d565b9050919050565b60095481565b60008073ffffffffffffffffffffffffffffffffffffffff168273ffffffffffffffffffffffffffffffffffffffff1603610ab95760006040517f89c62b64000000000000000000000000000000000000000000000000000000008152600401610ab091906122c9565b60405180910390fd5b600360008373ffffffffffffffffffffffffffffffffffffffff1673ffffffffffffffffffffffffffffffffffffffff168152602001908152602001600020549050919050565b610b0861157b565b610b126000611602565b565b600b8054610b219061274d565b80601f0160208091040260200160405190810160405280929190818152602001828054610b4d9061274d565b8015610b9a5780601f10610b6f57610100808354040283529160200191610b9a565b820191906000526020600020905b815481529060010190602001808311610b7d57829003601f168201915b505050505081565b6000600760009054906101000a900473ffffffffffffffffffffffffffffffffffffffff16905090565b606060018054610bdb9061274d565b80601f0160208091040260200160405190810160405280929190818152602001828054610c079061274d565b8015610c545780601f10610c2957610100808354040283529160200191610c54565b820191906000526020600020905b815481529060010190602001808311610c3757829003601f168201915b5050505050905090565b610c70610c696111f2565b83836116c8565b5050565b60003411610cb7576040517f08c379a0000000000000000000000000000000000000000000000000000000008152600401610cae90612a32565b60405180910390fd5b34600a6000828254610cc99190612a52565b925050819055503373ffffffffffffffffffffffffffffffffffffffff167ffa5658cbb5d60363acba0d281bddcf21cc9e7ea6053267531b4cdc36d5df7a8a3483604051610d18929190612898565b60405180910390a250565b610d2e848484610736565b610d42610d396111f2565b85858585611837565b50505050565b6060610d538261112d565b506000600660008481526020019081526020016000208054610d749061274d565b80601f0160208091040260200160405190810160405280929190818152602001828054610da09061274d565b8015610ded5780601f10610dc257610100808354040283529160200191610ded565b820191906000526020600020905b815481529060010190602001808311610dd057829003601f168201915b505050505090506000610dfe6119e8565b90506000815103610e13578192505050610e56565b600082511115610e48578082604051602001610e30929190612ac2565b60405160208183030381529060405292505050610e56565b610e51846119ff565b925050505b919050565b600c8054610e689061274d565b80601f0160208091040260200160405190810160405280929190818152602001828054610e949061274d565b8015610ee15780601f10610eb657610100808354040283529160200191610ee1565b820191906000526020600020905b815481529060010190602001808311610ec457829003601f168201915b505050505081565b610ef161157b565b80600c9081610f009190612c92565b5050565b610f0c61157b565b80600b9081610f1b9190612c92565b5050565b6000600560008473ffffffffffffffffffffffffffffffffffffffff1673ffffffffffffffffffffffffffffffffffffffff16815260200190815260200160002060008373ffffffffffffffffffffffffffffffffffffffff1673ffffffffffffffffffffffffffffffffffffffff16815260200190815260200160002060009054906101000a900460ff16905092915050565b610fbb61157b565b600073ffffffffffffffffffffffffffffffffffffffff168173ffffffffffffffffffffffffffffffffffffffff160361102d5760006040517f1e4fbdf700000000000000000000000000000000000000000000000000000000815260040161102491906122c9565b60405180910390fd5b61103681611602565b50565b61104161157b565b8060098190555050565b60007f80ac58cd000000000000000000000000000000000000000000000000000000007bffffffffffffffffffffffffffffffffffffffffffffffffffffffff1916827bffffffffffffffffffffffffffffffffffffffffffffffffffffffff1916148061111657507f5b5e139f000000000000000000000000000000000000000000000000000000007bffffffffffffffffffffffffffffffffffffffffffffffffffffffff1916827bffffffffffffffffffffffffffffffffffffffffffffffffffffffff1916145b80611126575061112582611a68565b5b9050919050565b60008061113983611ad2565b9050600073ffffffffffffffffffffffffffffffffffffffff168173ffffffffffffffffffffffffffffffffffffffff16036111ac57826040517f7e2732890000000000000000000000000000000000000000000000000000000081526004016111a39190612093565b60405180910390fd5b80915050919050565b60006004600083815260200190815260200160002060009054906101000a900473ffffffffffffffffffffffffffffffffffffffff169050919050565b600033905090565b6112078383836001611b0f565b505050565b60008061121884611ad2565b9050600073ffffffffffffffffffffffffffffffffffffffff168373ffffffffffffffffffffffffffffffffffffffff161461125a57611259818486611cd4565b5b600073ffffffffffffffffffffffffffffffffffffffff168173ffffffffffffffffffffffffffffffffffffffff16146112eb5761129c600085600080611b0f565b6001600360008373ffffffffffffffffffffffffffffffffffffffff1673ffffffffffffffffffffffffffffffffffffffff168152602001908152602001600020600082825403925050819055505b600073ffffffffffffffffffffffffffffffffffffffff168573ffffffffffffffffffffffffffffffffffffffff161461136e576001600360008773ffffffffffffffffffffffffffffffffffffffff1673ffffffffffffffffffffffffffffffffffffffff168152602001908152602001600020600082825401925050819055505b846002600086815260200190815260200160002060006101000a81548173ffffffffffffffffffffffffffffffffffffffff021916908373ffffffffffffffffffffffffffffffffffffffff160217905550838573ffffffffffffffffffffffffffffffffffffffff168273ffffffffffffffffffffffffffffffffffffffff167fddf252ad1be2c89b69c2b068fc378daa952ba7f163c4a11628f55a4df523b3ef60405160405180910390a4809150509392505050565b600073ffffffffffffffffffffffffffffffffffffffff168273ffffffffffffffffffffffffffffffffffffffff16036114985760006040517f64a0ae9200000000000000000000000000000000000000000000000000000000815260040161148f91906122c9565b60405180910390fd5b60006114a68383600061120c565b9050600073ffffffffffffffffffffffffffffffffffffffff168173ffffffffffffffffffffffffffffffffffffffff161461151a5760006040517f73c6ac6e00000000000000000000000000000000000000000000000000000000815260040161151191906122c9565b60405180910390fd5b505050565b8060066000848152602001908152602001600020908161153f9190612c92565b507ff8e1a15aba9398e019f0b49df1a4fde98ee17ae345cb5f6b5e2c27f5033e8ce78260405161156f9190612093565b60405180910390a15050565b6115836111f2565b73ffffffffffffffffffffffffffffffffffffffff166115a1610ba2565b73ffffffffffffffffffffffffffffffffffffffff1614611600576115c46111f2565b6040517f118cdaa70000000000000000000000000000000000000000000000000000000081526004016115f791906122c9565b60405180910390fd5b565b6000600760009054906101000a900473ffffffffffffffffffffffffffffffffffffffff16905081600760006101000a81548173ffffffffffffffffffffffffffffffffffffffff021916908373ffffffffffffffffffffffffffffffffffffffff1602179055508173ffffffffffffffffffffffffffffffffffffffff168173ffffffffffffffffffffffffffffffffffffffff167f8be0079c531659141344cd1fd0a4f28419497f9722a3daafe3b4186f6b6457e060405160405180910390a35050565b600073ffffffffffffffffffffffffffffffffffffffff168273ffffffffffffffffffffffffffffffffffffffff160361173957816040517f5b08ba1800000000000000000000000000000000000000000000000000000000815260040161173091906122c9565b60405180910390fd5b80600560008573ffffffffffffffffffffffffffffffffffffffff1673ffffffffffffffffffffffffffffffffffffffff16815260200190815260200160002060008473ffffffffffffffffffffffffffffffffffffffff1673ffffffffffffffffffffffffffffffffffffffff16815260200190815260200160002060006101000a81548160ff0219169083151502179055508173ffffffffffffffffffffffffffffffffffffffff168373ffffffffffffffffffffffffffffffffffffffff167f17307eab39ab6107e8899845ad3d59bd9653f200f220920489ca2b5937696c318360405161182a9190612162565b60405180910390a3505050565b60008373ffffffffffffffffffffffffffffffffffffffff163b11156119e1578273ffffffffffffffffffffffffffffffffffffffff1663150b7a02868685856040518563ffffffff1660e01b81526004016118969493929190612db9565b6020604051808303816000875af19250505080156118d257506040513d601f19601f820116820180604052508101906118cf9190612e1a565b60015b611956573d8060008114611902576040519150601f19603f3d011682016040523d82523d6000602084013e611907565b606091505b50600081510361194e57836040517f64a0ae9200000000000000000000000000000000000000000000000000000000815260040161194591906122c9565b60405180910390fd5b805160208201fd5b63150b7a0260e01b7bffffffffffffffffffffffffffffffffffffffffffffffffffffffff1916817bffffffffffffffffffffffffffffffffffffffffffffffffffffffff1916146119df57836040517f64a0ae920000000000000000000000000000000000000000000000000000000081526004016119d691906122c9565b60405180910390fd5b505b5050505050565b606060405180602001604052806000815250905090565b6060611a0a8261112d565b506000611a156119e8565b90506000815111611a355760405180602001604052806000815250611a60565b80611a3f84611d98565b604051602001611a50929190612ac2565b6040516020818303038152906040525b915050919050565b60007f01ffc9a7000000000000000000000000000000000000000000000000000000007bffffffffffffffffffffffffffffffffffffffffffffffffffffffff1916827bffffffffffffffffffffffffffffffffffffffffffffffffffffffff1916149050919050565b60006002600083815260200190815260200160002060009054906101000a900473ffffffffffffffffffffffffffffffffffffffff169050919050565b8080611b485750600073ffffffffffffffffffffffffffffffffffffffff168273ffffffffffffffffffffffffffffffffffffffff1614155b15611c7c576000611b588461112d565b9050600073ffffffffffffffffffffffffffffffffffffffff168373ffffffffffffffffffffffffffffffffffffffff1614158015611bc357508273ffffffffffffffffffffffffffffffffffffffff168173ffffffffffffffffffffffffffffffffffffffff1614155b8015611bd65750611bd48184610f1f565b155b15611c1857826040517fa9fbf51f000000000000000000000000000000000000000000000000000000008152600401611c0f91906122c9565b60405180910390fd5b8115611c7a57838573ffffffffffffffffffffffffffffffffffffffff168273ffffffffffffffffffffffffffffffffffffffff167f8c5be1e5ebec7d5bd14f71427d1e84f3dd0314c0f7b2291e5b200ac8c7c3b92560405160405180910390a45b505b836004600085815260200190815260200160002060006101000a81548173ffffffffffffffffffffffffffffffffffffffff021916908373ffffffffffffffffffffffffffffffffffffffff16021790555050505050565b611cdf838383611e66565b611d9357600073ffffffffffffffffffffffffffffffffffffffff168373ffffffffffffffffffffffffffffffffffffffff1603611d5457806040517f7e273289000000000000000000000000000000000000000000000000000000008152600401611d4b9190612093565b60405180910390fd5b81816040517f177e802f000000000000000000000000000000000000000000000000000000008152600401611d8a929190612e47565b60405180910390fd5b505050565b606060006001611da784611f27565b01905060008167ffffffffffffffff811115611dc657611dc56123ad565b5b6040519080825280601f01601f191660200182016040528015611df85781602001600182028036833780820191505090505b509050600082602083010190505b600115611e5b578080600190039150507f3031323334353637383961626364656600000000000000000000000000000000600a86061a8153600a8581611e4f57611e4e612e70565b5b04945060008503611e06575b819350505050919050565b60008073ffffffffffffffffffffffffffffffffffffffff168373ffffffffffffffffffffffffffffffffffffffff1614158015611f1e57508273ffffffffffffffffffffffffffffffffffffffff168473ffffffffffffffffffffffffffffffffffffffff161480611edf5750611ede8484610f1f565b5b80611f1d57508273ffffffffffffffffffffffffffffffffffffffff16611f05836111b5565b73ffffffffffffffffffffffffffffffffffffffff16145b5b90509392505050565b600080600090507a184f03e93ff9f4daa797ed6e38ed64bf6a1f0100000000000000008310611f85577a184f03e93ff9f4daa797ed6e38ed64bf6a1f0100000000000000008381611f7b57611f7a612e70565b5b0492506040810190505b6d04ee2d6d415b85acef81000000008310611fc2576d04ee2d6d415b85acef81000000008381611fb857611fb7612e70565b5b0492506020810190505b662386f26fc100008310611ff157662386f26fc100008381611fe757611fe6612e70565b5b0492506010810190505b6305f5e100831061201a576305f5e10083816120105761200f612e70565b5b0492506008810190505b612710831061203f57612710838161203557612034612e70565b5b0492506004810190505b60648310612062576064838161205857612057612e70565b5b0492506002810190505b600a8310612071576001810190505b80915050919050565b6000819050919050565b61208d8161207a565b82525050565b60006020820190506120a86000830184612084565b92915050565b6000604051905090565b600080fd5b600080fd5b60007fffffffff0000000000000000000000000000000000000000000000000000000082169050919050565b6120f7816120c2565b811461210257600080fd5b50565b600081359050612114816120ee565b92915050565b6000602082840312156121305761212f6120b8565b5b600061213e84828501612105565b91505092915050565b60008115159050919050565b61215c81612147565b82525050565b60006020820190506121776000830184612153565b92915050565b600081519050919050565b600082825260208201905092915050565b60005b838110156121b757808201518184015260208101905061219c565b60008484015250505050565b6000601f19601f8301169050919050565b60006121df8261217d565b6121e98185612188565b93506121f9818560208601612199565b612202816121c3565b840191505092915050565b6000602082019050818103600083015261222781846121d4565b905092915050565b6122388161207a565b811461224357600080fd5b50565b6000813590506122558161222f565b92915050565b600060208284031215612271576122706120b8565b5b600061227f84828501612246565b91505092915050565b600073ffffffffffffffffffffffffffffffffffffffff82169050919050565b60006122b382612288565b9050919050565b6122c3816122a8565b82525050565b60006020820190506122de60008301846122ba565b92915050565b6122ed816122a8565b81146122f857600080fd5b50565b60008135905061230a816122e4565b92915050565b60008060408385031215612327576123266120b8565b5b6000612335858286016122fb565b925050602061234685828601612246565b9150509250929050565b600080600060608486031215612369576123686120b8565b5b6000612377868287016122fb565b9350506020612388868287016122fb565b925050604061239986828701612246565b9150509250925092565b600080fd5b600080fd5b7f4e487b7100000000000000000000000000000000000000000000000000000000600052604160045260246000fd5b6123e5826121c3565b810181811067ffffffffffffffff82111715612404576124036123ad565b5b80604052505050565b60006124176120ae565b905061242382826123dc565b919050565b600067ffffffffffffffff821115612443576124426123ad565b5b61244c826121c3565b9050602081019050919050565b82818337600083830152505050565b600061247b61247684612428565b61240d565b905082815260208101848484011115612497576124966123a8565b5b6124a2848285612459565b509392505050565b600082601f8301126124bf576124be6123a3565b5b81356124cf848260208601612468565b91505092915050565b6000602082840312156124ee576124ed6120b8565b5b600082013567ffffffffffffffff81111561250c5761250b6120bd565b5b612518848285016124aa565b91505092915050565b600060208284031215612537576125366120b8565b5b6000612545848285016122fb565b91505092915050565b61255781612147565b811461256257600080fd5b50565b6000813590506125748161254e565b92915050565b60008060408385031215612591576125906120b8565b5b600061259f858286016122fb565b92505060206125b085828601612565565b9150509250929050565b600067ffffffffffffffff8211156125d5576125d46123ad565b5b6125de826121c3565b9050602081019050919050565b60006125fe6125f9846125ba565b61240d565b90508281526020810184848401111561261a576126196123a8565b5b612625848285612459565b509392505050565b600082601f830112612642576126416123a3565b5b81356126528482602086016125eb565b91505092915050565b60008060008060808587031215612675576126746120b8565b5b6000612683878288016122fb565b9450506020612694878288016122fb565b93505060406126a587828801612246565b925050606085013567ffffffffffffffff8111156126c6576126c56120bd565b5b6126d28782880161262d565b91505092959194509250565b600080604083850312156126f5576126f46120b8565b5b6000612703858286016122fb565b9250506020612714858286016122fb565b9150509250929050565b7f4e487b7100000000000000000000000000000000000000000000000000000000600052602260045260246000fd5b6000600282049050600182168061276557607f821691505b6020821081036127785761277761271e565b5b50919050565b600060608201905061279360008301866122ba565b6127a06020830185612084565b6127ad60408301846122ba565b949350505050565b7f496e73756666696369656e74207061796d656e74000000000000000000000000600082015250565b60006127eb601483612188565b91506127f6826127b5565b602082019050919050565b6000602082019050818103600083015261281a816127de565b9050919050565b7f4e487b7100000000000000000000000000000000000000000000000000000000600052601160045260246000fd5b600061285b8261207a565b91507fffffffffffffffffffffffffffffffffffffffffffffffffffffffffffffffff820361288d5761288c612821565b5b600182019050919050565b60006040820190506128ad6000830185612084565b81810360208301526128bf81846121d4565b90509392505050565b7f4e6f2066756e647320746f207769746864726177000000000000000000000000600082015250565b60006128fe601483612188565b9150612909826128c8565b602082019050919050565b6000602082019050818103600083015261292d816128f1565b9050919050565b600081905092915050565b50565b600061294f600083612934565b915061295a8261293f565b600082019050919050565b600061297082612942565b9150819050919050565b7f5769746864726177616c206661696c6564000000000000000000000000000000600082015250565b60006129b0601183612188565b91506129bb8261297a565b602082019050919050565b600060208201905081810360008301526129df816129a3565b9050919050565b7f446f6e6174696f6e206d7573742062652067726561746572207468616e203000600082015250565b6000612a1c601f83612188565b9150612a27826129e6565b602082019050919050565b60006020820190508181036000830152612a4b81612a0f565b9050919050565b6000612a5d8261207a565b9150612a688361207a565b9250828201905080821115612a8057612a7f612821565b5b92915050565b600081905092915050565b6000612a9c8261217d565b612aa68185612a86565b9350612ab6818560208601612199565b80840191505092915050565b6000612ace8285612a91565b9150612ada8284612a91565b91508190509392505050565b60008190508160005260206000209050919050565b60006020601f8301049050919050565b600082821b905092915050565b600060088302612b487fffffffffffffffffffffffffffffffffffffffffffffffffffffffffffffffff82612b0b565b612b528683612b0b565b95508019841693508086168417925050509392505050565b6000819050919050565b6000612b8f612b8a612b858461207a565b612b6a565b61207a565b9050919050565b6000819050919050565b612ba983612b74565b612bbd612bb582612b96565b848454612b18565b825550505050565b600090565b612bd2612bc5565b612bdd818484612ba0565b505050565b5b81811015612c0157612bf6600082612bca565b600181019050612be3565b5050565b601f821115612c4657612c1781612ae6565b612c2084612afb565b81016020851015612c2f578190505b612c43612c3b85612afb565b830182612be2565b50505b505050565b600082821c905092915050565b6000612c6960001984600802612c4b565b1980831691505092915050565b6000612c828383612c58565b9150826002028217905092915050565b612c9b8261217d565b67ffffffffffffffff811115612cb457612cb36123ad565b5b612cbe825461274d565b612cc9828285612c05565b600060209050601f831160018114612cfc5760008415612cea578287015190505b612cf48582612c76565b865550612d5c565b601f198416612d0a86612ae6565b60005b82811015612d3257848901518255600182019150602085019450602081019050612d0d565b86831015612d4f5784890151612d4b601f891682612c58565b8355505b6001600288020188555050505b505050505050565b600081519050919050565b600082825260208201905092915050565b6000612d8b82612d64565b612d958185612d6f565b9350612da5818560208601612199565b612dae816121c3565b840191505092915050565b6000608082019050612dce60008301876122ba565b612ddb60208301866122ba565b612de86040830185612084565b8181036060830152612dfa8184612d80565b905095945050505050565b600081519050612e14816120ee565b92915050565b600060208284031215612e3057612e2f6120b8565b5b6000612e3e84828501612e05565b91505092915050565b6000604082019050612e5c60008301856122ba565b612e696020830184612084565b9392505050565b7f4e487b7100000000000000000000000000000000000000000000000000000000600052601260045260246000fdfea2646970667358221220a9873dd226c44539c163204e1747c51bdd7daa21f594af1f4dfb45e48d99e12664736f6c634300081c0033",
  "linkReferences": {},
  "deployedLinkReferences": {}
}